{
  "contractName": "Oracle",
  "abi": [
    {
      "constant": true,
      "inputs": [],
      "name": "sequence",
      "outputs": [
        {
          "name": "",
          "type": "uint256"
        }
      ],
      "payable": false,
      "stateMutability": "view",
      "type": "function",
      "signature": "0x529d15cc"
    },
    {
      "anonymous": false,
      "inputs": [
        {
          "indexed": true,
          "name": "sequence",
          "type": "uint256"
        },
        {
          "indexed": true,
          "name": "timestamp",
          "type": "uint256"
        }
      ],
      "name": "GenerateRandom",
      "type": "event",
      "signature": "0x1124577e10a9938859db293866a960e232222d0f2048f8dba1f84da8f3edbeea"
    },
    {
      "anonymous": false,
      "inputs": [
        {
          "indexed": false,
          "name": "number",
          "type": "uint256"
        }
      ],
      "name": "ShowRandomNumber",
      "type": "event",
      "signature": "0xbe95c50300b19721ac91c104e8089d5a2d5194f2a98a7e967b8de5e4086e8574"
    },
    {
      "constant": false,
      "inputs": [],
      "name": "generateRandom",
      "outputs": [],
      "payable": false,
      "stateMutability": "nonpayable",
      "type": "function",
      "signature": "0x02e4af01"
    },
    {
      "constant": false,
      "inputs": [
        {
          "name": "generatedNumber",
          "type": "uint256"
        }
      ],
      "name": "__callback",
      "outputs": [],
      "payable": false,
      "stateMutability": "nonpayable",
      "type": "function",
      "signature": "0x38be706d"
    }
  ],
  "bytecode": "0x60806040526000805534801561001457600080fd5b50610167806100246000396000f3fe608060405234801561001057600080fd5b506004361061005e576000357c01000000000000000000000000000000000000000000000000000000009004806302e4af011461006357806338be706d1461006d578063529d15cc1461009b575b600080fd5b61006b6100b9565b005b6100996004803603602081101561008357600080fd5b81019080803590602001909291905050506100fb565b005b6100a3610135565b6040518082815260200191505060405180910390f35b426000547f1124577e10a9938859db293866a960e232222d0f2048f8dba1f84da8f3edbeea60405160405180910390a360016000808282540192505081905550565b7fbe95c50300b19721ac91c104e8089d5a2d5194f2a98a7e967b8de5e4086e8574816040518082815260200191505060405180910390a150565b6000548156fea165627a7a72305820873a854623094776ad957253f441d271b1cc2f43909af2baa936e0b1610a96fb0029",
  "source": "pragma solidity 0.5.4;\n\ncontract Oracle {\n    event GenerateRandom(uint256 indexed sequence, uint256 indexed timestamp);\n    event ShowRandomNumber(uint256 number);\n    uint256 public sequence = 0;\n\n    function generateRandom() public {\n        emit GenerateRandom(sequence, now);\n        sequence += 1;\n    }\n\n    function __callback(uint256 generatedNumber) public {\n        emit ShowRandomNumber(generatedNumber);\n    }\n}\n",
  "sourcePath": "/Users/merunas/Desktop/oracle/contracts/Oracle.sol",
  "compiler": {
    "name": "solc",
    "version": "0.5.4+commit.9549d8ff.Emscripten.clang"
  },
  "schemaVersion": "3.0.0-beta.2",
  "updatedAt": "2019-02-26T14:03:07.805Z",
  "devdoc": {
    "methods": {}
  },
  "userdoc": {
    "methods": {}
  }
}